S0150000626C7565746F6F74682B4C43442E737265633B
S113000071C000008EC000008CC000008AC00000D7
S113001088C0000086C0000084C0000082C00000C8
S113002080C000007EC000007CC000007AC00000D8
S113003078C0000076C0000074C0000072C00000E8
S113004070C000006EC000006CC000006AC00000F8
S113005068C0000066C0000064C0000020C2000048
S113006060C00000B7C200005CC000005AC00000BD
S113007058C000009DC1000054C0000052C00000E0
S113008050C000004EC000004CC000004AC0000038
S113009048C0000046C0000044C0000042C0000048
S11300A040C000003EC000003CC000003AC0000058
S11300B038C0000036C0000034C0000032C0000068
S11300C030C000002EC000002CC000002AC0000078
S11300D028C0000026C0000024C0000022C0000088
S11300E020C0000011241FBECFEFD1E2DEBFCDBF80
S11300F000E00CBF12E0A0E0B2E0ECE9F6E000E0C2
S11301000BBF02C007900D92AA37B107D9F722E0BE
S1130110AAE7B2E001C01D92A83AB207E1F719D2EA
S1130120BBC26ECF813011F48BB901C01BB88BB147
S113013084608BB960930B0187EC90E00197F1F731
S113014000C000008BB181708BB987EC90E00197FF
S1130150F1F700C0000008952FE785EB91E02150EE
S113016080409040E1F700C0000068E380E0DADFFF
S113017087EC90E00197F1F700C000006CE080E0AC
S1130180D1DF87EC90E00197F1F700C0000061E057
S113019080E0C8DF8FE39FE10197F1F700C0000022
S11301A066E080E0BFCF08958091A502811130C040
S11301B08091940290919502A0E0B0E0AC01BD0161
S11301C0440F551F661F771F440F551F661F771F67
S11301D0840F951FA61FB71FAC01BD01440F551F07
S11301E0661F771F440F551F661F771F840F951FC7
S11301F0A61FB71F689413F8B695A795979587958A
S11302001694D1F78856974F90938900809388006D
S11302108091A5028130C9F42091A1023091A202FB
S1130220A1E7B2E02AD2DC01CB01072E79E0B69532
S1130230A795979587957A95D1F7702DBC01605A4B
S1130240764F70938B0060938A0000992DC02EC066
S1130250E0917A02F0E0EE0FFF1FE050FE4F808144
S113026088B980919F029091A0020A97D0F31092CE
S1130270A00210929F0280917A028F5F8770809310
S11302807A028091980290919902A0919A02B09179
S11302909B020196A11DB11D80939802909399022F
S11302A0A0939A02B0939B020099D2CF019933C0D4
S11302B0089580917A02811103C087E080937A02C5
S11302C0E0917A02F0E0EE0FFF1FE050FE4F8081D4
S11302D088B980919F029091A0020A97D0F310925E
S11302E0A00210929F0280917A02815080937A0238
S11302F08091980290919902A0919A02B0919B02E8
S11303000197A109B1098093980290939902A0934F
S11303109A02B0939B020199CCCF089536C0809184
S11303209C0290919D02019781F50FC0FC01E55854
S1130330FD4F3081FC01E05AFD4F2081321719F046
S113034021E02093A302019602C080E090E089316D
S1130350910564F38091A302811107C087E492E0C0
S11303602DD181E08093A40205C08EE292E026D1D3
S11303701092A30289E1EBE7F2E0DF011D928A9576
S1130380E9F710929D0210929C028091A4028130A0
S113039031F6089510BA8EEF81BB80E480937C001F
S11303A0EAE7F0E08FE080838081806C80830895A9
S11303B01F920F920FB60F9211240BB60F922F9328
S11303C08F939F93EF93FF93E8E7F0E0808190E0B1
S11303D0909397028093960220818091790090E017
S11303E0982F8827822B909397028093960280916E
S11303F0A502811109C08091960290919702909371
S11304009502809394020CC08091A502813041F43E
S113041080919602909197029093A2028093A102F8
S11304208091A5028F5F8093A5028091A5028170BF
S11304308093A502ECE7F0E080819091A502807E94
S1130440892B8083EAE7F0E0808180648083FF91D8
S1130450EF919F918F912F910F900BBE0F900FBE34
S11304600F901F901895E0E8F0E08081826A808305
S1130470E1E8F0E080818A61808380E29EE49093E9
S113048087008093860084B1806684B986E086BD47
S113049014BC83E085BD81E080936E0008951F92B3
S11304A00F920FB60F9211248F939F9316BC8091D5
S11304B09F029091A00201969093A00280939F02C4
S11304C09F918F910F900FBE0F901F9018951092CF
S11304D0070181E08093080111B883E082B98FE0BD
S11304E087B918B8089588ED9EE0909389008093A9
S11304F0880080E699E090938B0080938A0018C06E
S1130500E0917A02F0E0EE0FFF1FE050FE4F808191
S113051088B92FEF89EF90E0215080409040E1F7B7
S113052000C0000080917A028F5F877080937A0206
S11305308091060180FDE4CF08957894C8DF93DFAD
S113054029DFD1DF09DE25D080E192E037D0E6CE85
S11305500895F3DF8091A4028130E1F725DE8091D4
S11305609C0290919D020197A9F780917B028632AB
S113057059F480E692E022D0B6DF89E1EBE7F2E0BD
S1130580DF011D928A95E9F710929D0210929C0258
S1130590E1CF1092C00088E98093C10086E0809387
S11305A0C20087E68093C4001092C500089590911C
S11305B0C00095FFFCCF8093C6000895CF93DF93CE
S11305C0EC0102C0F4DF219688818111FBCFDF9119
S11305D0CF9108951F920F920FB60F9211240BB66C
S11305E00F922F933F934F935F936F937F938F93C8
S11305F09F93AF93BF93EF93FF938091C60090E0D6
S11306009093A7028093A6028091A6029091A702DC
S11306100A9701F18091A6029091A7020D9781F0AB
S1130620E0919E02F0E08091A6029091A702E55825
S1130630FD4F808380919E028F5F80939E020AC04B
S11306408DE0B5DF10929E0281E090E090939D02D0
S113065080939C02FF91EF91BF91AF919F918F91F5
S11306607F916F915F914F913F912F910F900BBEAE
S11306700F900FBE0F901F901895A29FB001B39FCB
S1130680C001A39F700D811D1124911DB29F700D97
S10F0690811D1124911D0895F894FFCFE2
S113069C0900010003000200060004000C0008001D
S11306AC456E7465722050617373776F7264207435
S11306BC6F20636F6E666967757265000000547213
S11306CC7920416761696E000000000000000000A1
S11306DC00000000000000416363657373204772DF
S11306EC616E7465640000000000000000000000EE
S11306FC746573740000000000000000000000002A
S10D070C00000000000000000000DF
S90302A456
