:1000000071C000008EC000008CC000008AC00000DB
:1000100088C0000086C0000084C0000082C00000CC
:1000200080C000007EC000007CC000007AC00000DC
:1000300078C0000076C0000074C0000072C00000EC
:1000400070C000006EC000006CC000006AC00000FC
:1000500068C0000066C0000064C0000020C200004C
:1000600060C00000B8C200005CC000005AC00000C0
:1000700058C000009DC1000054C0000052C00000E4
:1000800050C000004EC000004CC000004AC000003C
:1000900048C0000046C0000044C0000042C000004C
:1000A00040C000003EC000003CC000003AC000005C
:1000B00038C0000036C0000034C0000032C000006C
:1000C00030C000002EC000002CC000002AC000007C
:1000D00028C0000026C0000024C0000022C000008C
:1000E00020C0000011241FBECFEFD1E2DEBFCDBF84
:1000F00000E00CBF12E0A0E0B2E0EEE9F6E000E0C4
:100100000BBF02C007900D92A039B107D9F722E0CA
:10011000A0E9B2E001C01D92AE3BB207E1F71DD2EB
:10012000BCC26ECF813011F48BB901C01BB88BB14A
:1001300084608BB960930B0187EC90E00197F1F735
:1001400000C000008BB181708BB987EC90E0019703
:10015000F1F700C0000008952FE785EB91E02150F2
:1001600080409040E1F700C0000068E380E0DADF03
:1001700087EC90E00197F1F700C000006CE080E0B0
:10018000D1DF87EC90E00197F1F700C0000061E05B
:1001900080E0C8DF8FE39FE10197F1F700C0000026
:1001A00066E080E0BFCF08958091BB02811130C02E
:1001B0008091AA029091AB02A0E0B0E0AC01BD0139
:1001C000440F551F661F771F440F551F661F771F6B
:1001D000840F951FA61FB71FAC01BD01440F551F0B
:1001E000661F771F440F551F661F771F840F951FCB
:1001F000A61FB71F689413F8B695A795979587958E
:100200001694D1F78856974F909389008093880071
:100210008091BB028130C9F42091B7023091B802BD
:10022000A1E7B2E02BD2DC01CB01072E79E0B69535
:10023000A795979587957A95D1F7702DBC01605A4F
:10024000764F70938B0060938A0000992DC02EC06A
:10025000E0919002F0E0EE0FFF1FE050FE4F808132
:1002600088B98091B5029091B6020A97D0F31092A6
:10027000B6021092B502809190028F5F87708093D2
:1002800090028091AE029091AF02A091B002B09125
:10029000B1020196A11DB11D8093AE029093AF02F1
:1002A000A093B002B093B1020099D2CF019933C0AC
:1002B000089580919002811103C087E0809390029D
:1002C000E0919002F0E0EE0FFF1FE050FE4F8081C2
:1002D00088B98091B5029091B6020A97D0F3109236
:1002E000B6021092B50280919002815080939002E4
:1002F0008091AE029091AF02A091B002B091B10294
:100300000197A109B1098093AE029093AF02A09327
:10031000B002B093B1020199CCCF089536C080915C
:10032000B2029091B302019781F50FC0FC01EF5624
:10033000FD4F3081FC01E05AFD4F2081321719F04A
:1003400021E02093B902019602C080E090E089315B
:10035000910564F38091B902811107C087E492E0AE
:100360002ED181E08093BA0205C08EE292E027D1BF
:100370001092B90289E1E1E9F2E0DF011D928A956C
:10038000E9F71092B3021092B2028091BA02813062
:1003900031F6089510BA8EEF81BB80E480937C0023
:1003A000EAE7F0E08FE080838081806C80830895AD
:1003B0001F920F920FB60F9211240BB60F922F932C
:1003C0008F939F93EF93FF93E8E7F0E0808190E0B5
:1003D0009093AD028093AC0220818091790090E0EF
:1003E000982F8827822B9093AD028093AC02809146
:1003F000BB02811109C08091AC029091AD02909333
:10040000AB028093AA020CC08091BB02813041F400
:100410008091AC029091AD029093B8028093B702A4
:100420008091BB028F5F8093BB028091BB02817081
:100430008093BB02ECE7F0E080819091BB02807E6C
:10044000892B8083EAE7F0E0808180648083FF91DC
:10045000EF919F918F912F910F900BBE0F900FBE38
:100460000F901F901895E0E8F0E08081826A808309
:10047000E1E8F0E080818A61808380E29EE49093ED
:1004800087008093860084B1806684B986E086BD4B
:1004900014BC83E085BD81E080936E0008951F92B7
:1004A0000F920FB60F9211248F939F9316BC8091D9
:1004B000B5029091B60201969093B6028093B50270
:1004C0009F918F910F900FBE0F901F9018951092D3
:1004D000070181E08093080111B883E082B98FE0C1
:1004E00087B918B8089588ED9EE0909389008093AD
:1004F000880080E699E090938B0080938A0019C071
:10050000E0919002F0E0EE0FFF1FE050FE4F80817F
:1005100088B98091B5029091B6020A97D0F31092F3
:10052000B6021092B502809190028F5F877080931F
:1005300090028091060180FDE3CF89E792E03FC001
:1005400008957894C4DF8FDF25DFCDDF05DE22D06C
:1005500080E192E034D0E2CE0895F3DF8091BA02D8
:100560008130E1F721DE8091B2029091B3020197D0
:10057000A9F780919102863209F4B5DF89E1E1E9BA
:10058000F2E0DF011D928A95E9F71092B302109212
:10059000B202E4CF1092C00088E98093C10086E0E7
:1005A0008093C20087E68093C4001092C50008952E
:1005B0009091C00095FFFCCF8093C6000895CF9323
:1005C000DF93EC0102C0F4DF219688818111FBCF1B
:1005D000DF91CF9108951F920F920FB60F921124C1
:1005E0000BB60F922F933F934F935F936F937F932D
:1005F0008F939F93AF93BF93EF93FF938091C60028
:1006000090E09093BD028093BC028091BC029091D7
:10061000BD020A9701F18091BC029091BD020D9735
:1006200081F0E091B402F0E08091BC029091BD02B3
:10063000EF56FD4F80838091B4028F5F8093B402A8
:100640000AC08DE0B5DF1092B40281E090E0909393
:10065000B3028093B202FF91EF91BF91AF919F914E
:100660008F917F916F915F914F913F912F910F905B
:100670000BBE0F900FBE0F901F901895A29FB00158
:10068000B39FC001A39F700D811D1124911DB29FC6
:0E069000700D811D1124911D0895F894FFCF67
:10069E000900010003000200060004000C0008001F
:1006AE00456E7465722050617373776F7264207437
:1006BE006F20636F6E666967757265000000547215
:1006CE007920416761696E000000000000000000A3
:1006DE0000000000000000416363657373204772E1
:1006EE00616E7465640000000000000000000000F0
:1006FE00746573740000000000000000000000002C
:10070E00000000000000000000486F6D6520706F53
:10071E00736974696F6E2072656163686564000049
:04000005008002BABB
:00000001FF
