:1000000071C000008EC000008CC000008AC00000DB
:1000100088C0000086C0000084C0000082C00000CC
:1000200080C000007EC000007CC000007AC00000DC
:1000300078C0000076C0000074C0000072C00000EC
:1000400070C000006EC000006CC000006AC00000FC
:1000500068C0000066C0000064C0000069C1000004
:1000600060C0000002C200005CC000005AC0000076
:1000700058C00000E6C0000054C0000052C000009C
:1000800050C000004EC000004CC000004AC000003C
:1000900048C0000046C0000044C0000042C000004C
:1000A00040C000003EC000003CC000003AC000005C
:1000B00038C0000036C0000034C0000032C000006C
:1000C00030C000002EC000002CC000002AC000007C
:1000D00028C0000026C0000024C0000022C000008C
:1000E00020C0000011241FBECFEFD1E2DEBFCDBF84
:1000F00000E00CBF12E0A0E0B2E0E4E1F5E000E0D7
:100100000BBF02C007900D92A839B107D9F722E0C2
:10011000A8E9B2E001C01D92A63CB207E1F762D1A6
:10012000F7C16ECF813011F48BB901C01BB88BB110
:1001300084608BB960930B0187EC90E00197F1F735
:1001400000C000008BB181708BB987EC90E0019703
:10015000F1F700C0000008952FE785EB91E02150F2
:1001600080409040E1F700C0000068E380E0DADF03
:1001700087EC90E00197F1F700C000006CE080E0B0
:10018000D1DF87EC90E00197F1F700C0000061E05B
:1001900080E0C8DF8FE39FE10197F1F700C0000026
:1001A00066E080E0BFCF08958BE592E052D136C083
:1001B0008091BA029091BB02019781F50FC0FC01BA
:1001C000E756FD4F3081FC01EE5BFD4F2081321779
:1001D00019F021E02093C102019602C080E090E076
:1001E0008931910564F38091C102811107C089E2D0
:1001F00092E02FD181E08093C20205C080E192E0BD
:1002000028D11092C10289E1E9E9F2E0DF011D92F3
:100210008A95E9F71092BB021092BA028091C2024D
:10022000813031F6089510BA8EEF81BB80E480935F
:100230007C00EAE7F0E08FE080838081806C80833F
:1002400008951F920F920FB60F9211240BB60F92C2
:100250002F938F939F93EF93FF93E8E7F0E08081D4
:1002600090E09093B5028093B40220818091790050
:1002700090E0982F8827822B9093B5028093B40248
:100280008091C302811109C08091B4029091B5029E
:100290009093B3028093B2020CC08091C30281306C
:1002A00041F48091B4029091B5029093C002809382
:1002B000BF028091C3028F5F8093C3028091C3020B
:1002C00081708093C302ECE7F0E080819091C302DB
:1002D000807E892B8083EAE7F0E0808180648083E0
:1002E000FF91EF919F918F912F910F900BBE0F90E7
:1002F0000FBE0F901F901895E0E8F0E08081826AB1
:100300008083E1E8F0E080818A61808380E29EE47E
:10031000909387008093860084B1806684B986E0DC
:1003200086BD14BC83E085BD81E080936E00089596
:100330001F920F920FB60F9211248F939F9316BCAA
:100340008091BD029091BE0201969093BE0280936F
:10035000BD029F918F910F900FBE0F901F90189527
:100360001092070181E08093080111B883E082B9FF
:100370008FE087B918B8089588ED9EE090938900C2
:100380008093880080E699E090938B0080938A00A8
:1003900019C0E0919802F0E0EE0FFF1FE050FE4F11
:1003A000808188B98091BD029091BE020A97D0F3F6
:1003B0001092BE021092BD02809198028F5F8770EA
:1003C000809398028091060180FDE3CF89E792E057
:1003D00040C008957894C4DF8FDF25DFCDDFBCDE19
:1003E00023C00895F7DF8091BA029091BB02019774
:1003F000D1F780919902863241F08F3341F08332F8
:1004000039F48FE892E025D003C0B6DF01C0CCDE1E
:1004100089E1E9E9F2E0DF011D928A95E9F710929E
:10042000BB021092BA02DFCF1092C00088E980931D
:10043000C10086E08093C20087E68093C4001092DA
:10044000C50008959091C00095FFFCCF8093C60031
:100450000895CF93DF93EC0102C0F4DF21968881E9
:100460008111FBCFDF91CF9108951F920F920FB6AC
:100470000F9211240BB60F922F933F934F935F93DC
:100480006F937F938F939F93AF93BF93EF93FF935C
:100490008091C60090E09093C5028093C402809141
:1004A000C4029091C5020A9701F18091C402909113
:1004B000C5020D9781F0E091BC02F0E08091C4028A
:1004C0009091C502E756FD4F80838091BC028F5FFB
:1004D0008093BC020AC08DE0B5DF1092BC0281E0BF
:1004E00090E09093BB028093BA02FF91EF91BF918D
:1004F000AF919F918F917F916F915F914F913F91BC
:100500002F910F900BBE0F900FBE0F901F9018955C
:04051000F894FFCF8D
:100514000900010003000200060004000C000800AA
:1005240054727920416761696E0000000000000088
:100534000000000000000000004163636573732045
:100544004772616E746564000000000000000000E2
:1005540000007465737400000000000000000000D7
:100564000000000000000000000000456E74657289
:1005740020636F6E66696775726174696F6E20704F
:10058400617373776F72643A00486F6D6520706FA2
:10059400736974696F6E2072656163686564005382
:0805A40074617274696E670056
:00000001FF
