:1000000078C0000095C0000093C0000091C00000BF
:100010008FC000008DC000008BC0000089C00000B0
:1000200087C0000085C0000083C0000081C00000C0
:100030007FC000007DC000007BC0000079C00000D0
:1000400077C0000075C0000073C0000071C00000E0
:100050006FC000006DC000006BC00000A3C20000B4
:1000600067C0000069C4000063C0000061C00000F8
:100070005FC0000020C200005BC0000059C000004B
:1000800057C0000055C0000053C0000051C0000020
:100090004FC000004DC000004BC0000049C0000030
:1000A00047C0000045C0000043C0000041C0000040
:1000B0003FC000003DC000003BC0000039C0000050
:1000C00037C0000035C0000033C0000031C0000060
:1000D0002FC000002DC000002BC0000029C0000070
:1000E00027C000009F01A801B101BA01C301CC01E2
:1000F000D50111241FBECFEFD1E2DEBFCDBF00E09E
:100100000CBF12E0A0E0B2E0E0E1FAE000E00BBFDB
:1001100002C007900D92A43FB107D9F723E0A4EFE6
:10012000B2E001C01D92A133B207E1F7E0D26EC484
:1001300067CF813011F48BB901C01BB88BB18460DB
:100140008BB960930B0187EC90E00197F1F700C049
:1001500000008BB181708BB987EC90E00197F1F7CB
:1001600000C0000008952FE785EB91E0215080400A
:100170009040E1F700C0000068E380E0DADF87EC40
:1001800090E00197F1F700C000006CE080E0D1DF63
:1001900087EC90E00197F1F700C0000061E080E09B
:1001A000C8DF8FE39FE10197F1F700C0000066E030
:1001B00080E0BFCF089580912E03811130C08091DF
:1001C0000F0390911003A0E0B0E0AC01BD01440F1B
:1001D000551F661F771F440F551F661F771F840F1B
:1001E000951FA61FB71FAC01BD01440F551F661F09
:1001F000771F440F551F661F771F840F951FA61F7B
:10020000B71F689413F8B695A79597958795169498
:10021000D1F78856974F90938900809388008091FA
:100220002E038130C9F42091260330912703A1E7E2
:10023000B2E0DDD3DC01CB01072E79E0B695A795BE
:10024000979587957A95D1F7702DBC01605A764FB6
:1002500070938B0060938A00009927C028C0109289
:10026000F50216C0F0E0EE0FFF1FE050FE4F808158
:1002700088B980912403909125030A97D0F31092B6
:100280002503109224038091F5028F5F8093F5027D
:10029000E091F502E83030F380912C0390912D032A
:1002A000019690932D0380932C030099D8CF019948
:1002B00028C029C087E08093F50216C0F0E0EE0F59
:1002C000FF1FE050FE4F808188B9809124039091F8
:1002D00025030A97D0F310922503109224038091EE
:1002E000F50281508093F502E091F502E111E6CF2D
:1002F00080912C0390912D03019790932D0380936F
:100300002C030199D7CF809121039091220301976B
:1003100009F07BC08091F602813209F06FC08091B4
:10032000F402873008F062C090E08730910508F051
:1003300044C0FC018827EE58FF4F8F4F50C3809177
:100340002C0390912D03909329038093280335C0AB
:1003500080918A0090918B009093290380932803C9
:100360002CC08091880090918900909329038093FC
:10037000280323C080918A0090918B0090932903D9
:10038000809328031AC080912C0390912D039093A1
:1003900029038093280311C080918A0090918B00DB
:1003A000909329038093280308C08091880090913E
:1003B0008900909329038093280389E692E0B0D2C4
:1003C000E091F402F0E0EE0FFF1FEF5EFC4F809132
:1003D0002803909129039183808388E792E0A0D23B
:1003E0008091F4028F5F8093F4020BC01092F402AC
:1003F00081E892E095D210922B0303C08AE992E043
:100400008FD21092220310922103089587EB92E07D
:1004100087D236C08091210390912203019781F504
:100420000FC0FC01EA50FD4F3081FC01EE5BFD4F37
:100430002081321719F021E020932A03019602C08F
:1004400080E090E08931910564F380912A03811165
:1004500007C089E292E064D281E080932B0305C05B
:1004600080E192E05DD210922A0389E1E6EFF2E0AA
:10047000DF011D928A95E9F7109222031092210361
:1004800080912B03813031F60895C0DF01C093DEE7
:1004900080912B038130D9F3089510BA8EEF81BB80
:1004A00080E480937C00EAE7F0E08FE08083808145
:1004B000806C808308951F920F920FB60F921124C3
:1004C0000BB60F922F938F939F93EF93FF93E8E7D1
:1004D000F0E0808190E09093200380931F032081BF
:1004E0008091790090E0982F8827822B90932003A9
:1004F00080931F0380912E03811109C080911F03F7
:10050000909120039093100380930F030CC080916F
:100510002E03813041F480911F039091200390932A
:1005200027038093260380912E038F5F80932E03F1
:1005300080912E03817080932E03ECE7F0E08081A0
:1005400090912E03807E892B8083EAE7F0E0808102
:1005500080648083FF91EF919F918F912F910F90F5
:100560000BBE0F900FBE0F901F901895E0E8F0E0C3
:100570008081826A8083E1E8F0E080818A61808303
:1005800080E29EE4909387008093860084B1806629
:1005900084B986E086BD14BC83E085BD81E080938C
:1005A0006E0008951F920F920FB60F9211248F9331
:1005B0009F9316BC809124039091250301969093FC
:1005C0002503809324039F918F910F900FBE0F906E
:1005D0001F9018951092070181E08093080111B8CF
:1005E00083E082B98FE087B918B8089588ED9EE05E
:1005F000909389008093880080E699E090938B0027
:1006000080938A0020E030E020C087E08093F502EC
:1006100016C0F0E0EE0FFF1FE050FE4F808188B95A
:1006200080912403909125030597D0F31092250320
:10063000109224038091F50281508093F502E0919D
:10064000F502E111E6CF2F5F3F4F22333105E8F28B
:1006500019C0E091F502F0E0EE0FFF1FE050FE4FF1
:10066000808188B980912403909125030597D0F368
:1006700010922503109224038091F5028F5F8770FA
:100680008093F5028091060180FDE3CF20E030E009
:100690001FC01092F50216C0F0E0EE0FFF1FE050F1
:1006A000FE4F808188B9809124039091250305979E
:1006B000D0F310922503109224038091F5028F5FEE
:1006C0008093F502E091F502E83030F32F5F3F4F61
:1006D00028323105F0F285ED92E022C10895789438
:1006E00079DF44DFDADE3FDD06D180CF0895F7DF22
:1006F00080912103909122030197D1F78091F60216
:10070000863249F08F3349F0833241F48BEE92E028
:1007100007D199D003C06ADF01C0B7DE89E1E6EFF7
:10072000F2E0DF011D928A95E9F710922203109200
:100730002103DECFAC019923F4F060E070E042C009
:10074000E82FF0E0EE0FFF1FE050FE4F908198B9C8
:10075000209124033091250325303105C8F31092F0
:100760002503109224038F5F01C080E0883040F39E
:100770006F5F7F4F02C060E070E0CA01552324F430
:1007800088279927841B950B6817790770F30895BC
:10079000E92FF0E0EE0FFF1FE050FE4F208128B957
:1007A000209124033091250325303105C8F31092A0
:1007B000250310922403915001C097E09111E8CFD6
:1007C0006F5F7F4FCA01552324F488279927841B24
:1007D000950B6817790788F30895AC019C01A9E887
:1007E000B8E805D1FC01F295E295EF70EF27FF70B4
:1007F000EF272EE12E9FC0012F9F900D1124BA01EB
:10080000681B790B20918A0030918B0040E012C068
:100810002E0F311D30938B0020938A00809124038A
:100820009091250384369105C8F310922503109208
:1008300024034F5F4E3160F3260F311D30938B0040
:1008400020938A000895CF93DF93CDB7DEB72E971C
:100850000FB6F894DEBF0FBECDBF8EE0EBE5F2E041
:10086000DE01119601900D928A95E1F788E790E0FC
:1008700061DF8091240390912503843F9140C8F368
:10088000109225031092240380E19EE0A6DF809160
:10089000240390912503843F9140C8F310922503CF
:1008A0001092240388E998E090938900809388004F
:1008B0008091240390912503843F9140C8F31092C6
:1008C0002503109224038F81988587DF89859A8577
:1008D00031DF8B859C8581DF8D859E859093890096
:1008E000809388002E960FB6F894DEBF0FBECDBF62
:1008F000DF91CF9108951092C00088E98093C100E4
:1009000086E08093C20087E68093C4001092C50001
:1009100008959091C00095FFFCCF8093C600089584
:10092000CF93DF93EC0102C0F4DF2196888181111F
:10093000FBCFDF91CF9108951F920F920FB60F92C8
:1009400011240BB60F922F933F934F935F936F93A6
:100950007F938F939F93AF93BF93EF93FF93809178
:10096000C60090E09093300380932F0380912F0373
:10097000909130030A9701F180912F0390913003F9
:100980000D9781F0E0912303F0E080912F03909187
:100990003003EA50FD4F8083809123038F5F809363
:1009A00023030AC08DE0B5DF1092230381E090E0BD
:1009B0009093220380932103FF91EF91BF91AF9118
:1009C0009F918F917F916F915F914F913F912F9167
:1009D0000F900BBE0F900FBE0F901F901895EE0F4B
:1009E000FF1F881F8BBF0790F691E02D1994A29FDF
:1009F000B001B39FC001A39F700D811D1124911DF3
:100A0000B29F700D811D1124911D0895F894FFCFA0
:100A10000900010003000200060004000C000800A9
:100A200054727920416761696E0000000000000087
:100A30000000000000000000004163636573732044
:100A40004772616E746564000000000000000000E1
:100A500000007465737400000000000000000000D6
:100A600000000000000000000000007800100E9858
:100A700008600988FF100ED80E4265666F72652007
:100A8000454550524F4D20005265636F7264656456
:100A900000446F6E65205265636F7264696E6720F3
:100AA000416C6C20537465707300507265737320D1
:100AB0006F6E6C7920746865205265636F72642074
:100AC000427574746F6E00456E74657220636F6E4C
:100AD00066696775726174696F6E20706173737790
:100AE0006F72643A00486F6D6520706F7369746946
:100AF0006F6E20726561636865640053746172741F
:040B0000696E6700B3
:00000001FF
